{"abi":[{"type":"constructor","inputs":[],"stateMutability":"nonpayable"},{"type":"function","name":"allDonors","inputs":[{"name":"","type":"uint256","internalType":"uint256"}],"outputs":[{"name":"","type":"address","internalType":"address"}],"stateMutability":"view"},{"type":"function","name":"donate","inputs":[],"outputs":[],"stateMutability":"payable"},{"type":"function","name":"getDonorCount","inputs":[],"outputs":[{"name":"","type":"uint256","internalType":"uint256"}],"stateMutability":"view"},{"type":"function","name":"owner","inputs":[],"outputs":[{"name":"","type":"address","internalType":"address"}],"stateMutability":"view"},{"type":"function","name":"totalDonations","inputs":[{"name":"","type":"address","internalType":"address"}],"outputs":[{"name":"","type":"uint256","internalType":"uint256"}],"stateMutability":"view"},{"type":"function","name":"withdraw","inputs":[],"outputs":[],"stateMutability":"nonpayable"},{"type":"error","name":"ReentrancyGuardReentrantCall","inputs":[]}],"bytecode":{"object":"0x6080604052348015600e575f5ffd5b5060016029601f607260201b60201c565b609b60201b60201c565b5f0181905550335f5f6101000a81548173ffffffffffffffffffffffffffffffffffffffff021916908373ffffffffffffffffffffffffffffffffffffffff16021790555060a4565b5f7f9b779b17422d0df92223018b32b4d1fa46e071723d6817e2486d003becc55f005f1b905090565b5f819050919050565b610939806100b15f395ff3fe608060405260043610610054575f3560e01c80632c3e6963146100585780633ccfd60b146100945780635a4c38a7146100aa57806369bc2f1e146100e65780638da5cb5b14610110578063ed88c68e1461013a575b5f5ffd5b348015610063575f5ffd5b5061007e600480360381019061007991906105b2565b610144565b60405161008b919061061c565b60405180910390f35b34801561009f575f5ffd5b506100a861017f565b005b3480156100b5575f5ffd5b506100d060048036038101906100cb919061065f565b61031f565b6040516100dd9190610699565b60405180910390f35b3480156100f1575f5ffd5b506100fa610334565b6040516101079190610699565b60405180910390f35b34801561011b575f5ffd5b50610124610340565b604051610131919061061c565b60405180910390f35b610142610364565b005b60028181548110610153575f80fd5b905f5260205f20015f915054906101000a900473ffffffffffffffffffffffffffffffffffffffff1681565b5f5f9054906101000a900473ffffffffffffffffffffffffffffffffffffffff1673ffffffffffffffffffffffffffffffffffffffff163373ffffffffffffffffffffffffffffffffffffffff161461020d576040517f08c379a00000000000000000000000000000000000000000000000000000000081526004016102049061070c565b60405180910390fd5b5f4790505f8111610253576040517f08c379a000000000000000000000000000000000000000000000000000000000815260040161024a90610774565b60405180910390fd5b5f5f5f9054906101000a900473ffffffffffffffffffffffffffffffffffffffff1673ffffffffffffffffffffffffffffffffffffffff1682604051610298906107bf565b5f6040518083038185875af1925050503d805f81146102d2576040519150601f19603f3d011682016040523d82523d5f602084013e6102d7565b606091505b505090508061031b576040517f08c379a00000000000000000000000000000000000000000000000000000000081526004016103129061081d565b60405180910390fd5b5050565b6001602052805f5260405f205f915090505481565b5f600280549050905090565b5f5f9054906101000a900473ffffffffffffffffffffffffffffffffffffffff1681565b61036c6104b0565b5f34116103ae576040517f08c379a00000000000000000000000000000000000000000000000000000000081526004016103a590610885565b60405180910390fd5b5f60015f3373ffffffffffffffffffffffffffffffffffffffff1673ffffffffffffffffffffffffffffffffffffffff1681526020019081526020015f20540361045357600233908060018154018082558091505060019003905f5260205f20015f9091909190916101000a81548173ffffffffffffffffffffffffffffffffffffffff021916908373ffffffffffffffffffffffffffffffffffffffff1602179055505b3460015f3373ffffffffffffffffffffffffffffffffffffffff1673ffffffffffffffffffffffffffffffffffffffff1681526020019081526020015f205f82825461049f91906108d0565b925050819055506104ae6104d2565b565b6104b86104ec565b60026104ca6104c561052d565b610556565b5f0181905550565b60016104e46104df61052d565b610556565b5f0181905550565b6104f461055f565b1561052b576040517f3ee5aeb500000000000000000000000000000000000000000000000000000000815260040160405180910390fd5b565b5f7f9b779b17422d0df92223018b32b4d1fa46e071723d6817e2486d003becc55f005f1b905090565b5f819050919050565b5f600261057261056d61052d565b610556565b5f015414905090565b5f5ffd5b5f819050919050565b6105918161057f565b811461059b575f5ffd5b50565b5f813590506105ac81610588565b92915050565b5f602082840312156105c7576105c661057b565b5b5f6105d48482850161059e565b91505092915050565b5f73ffffffffffffffffffffffffffffffffffffffff82169050919050565b5f610606826105dd565b9050919050565b610616816105fc565b82525050565b5f60208201905061062f5f83018461060d565b92915050565b61063e816105fc565b8114610648575f5ffd5b50565b5f8135905061065981610635565b92915050565b5f602082840312156106745761067361057b565b5b5f6106818482850161064b565b91505092915050565b6106938161057f565b82525050565b5f6020820190506106ac5f83018461068a565b92915050565b5f82825260208201905092915050565b7f42616e206b686f6e672070686169206c612063687520736f20687575000000005f82015250565b5f6106f6601c836106b2565b9150610701826106c2565b602082019050919050565b5f6020820190508181035f830152610723816106ea565b9050919050565b7f4b686f6e6720636f2067692064652072757400000000000000000000000000005f82015250565b5f61075e6012836106b2565b91506107698261072a565b602082019050919050565b5f6020820190508181035f83015261078b81610752565b9050919050565b5f81905092915050565b50565b5f6107aa5f83610792565b91506107b58261079c565b5f82019050919050565b5f6107c98261079f565b9150819050919050565b7f527574207469656e2074686174206261690000000000000000000000000000005f82015250565b5f6108076011836106b2565b9150610812826107d3565b602082019050919050565b5f6020820190508181035f830152610834816107fb565b9050919050565b7f42616e207068616920677569206974206e686174203e20302043454c4f0000005f82015250565b5f61086f601d836106b2565b915061087a8261083b565b602082019050919050565b5f6020820190508181035f83015261089c81610863565b9050919050565b7f4e487b71000000000000000000000000000000000000000000000000000000005f52601160045260245ffd5b5f6108da8261057f565b91506108e58361057f565b92508282019050808211156108fd576108fc6108a3565b5b9291505056fea2646970667358221220f487a5016bc42705e4bbcb26036798135f5fa45c67ea7a5823851ceec4be813764736f6c634300081e0033","linkReferences":{}},"methodIdentifiers":{"allDonors(uint256)":"2c3e6963","donate()":"ed88c68e","getDonorCount()":"69bc2f1e","owner()":"8da5cb5b","totalDonations(address)":"5a4c38a7","withdraw()":"3ccfd60b"},"id":19}